:020000024000BC
:100000000000042045010400A7090400290E040093
:10001000A7090400A7090400A7090400A709040010
:10002000000000000000000000000000A70904001C
:10003000A709040000000000A7090400A7090400A4
:10004000000000000000000000000000A7090400FC
:1000500000000000A70904000000000000000000EC
:10006000A7090400A7090400A7090400A7090400C0
:1000700000000000A7090400A709040011040400FF
:10008000A70904007D030400000000000000000038
:10009000A7090400A70904000000000000000000F8
:1000A000A70904000000000000000000A7090400E8
:1000B000A7090400A7090400A7090400A709040070
:1000C000A7090400A7090400A7090400A709040060
:1000D000A709040000000000A709040000000000B8
:1000E000A709040000000000A709040000000000A8
:1000F000A70904000000000000000000000000004C
:1001000000000000A709040000000000000000003B
:1001100000000000000000000000000000000000DF
:1001200000000000A709040000000000000000001B
:1001300000000000000000000000000000000000BF
:04014000A709040007
:1001440080B56F4600F02EFC40F24C4040F20001B6
:10015400C2F20200C2F20201814208D240F200015E
:100164000022C2F2020141F8042B8142FBD340F287
:10017400000040F20001C2F20200C2F20201814218
:100184000DD240F6BC6140F20002C0F20401C2F29A
:10019400020251F8043B42F8043B8242F9D300F0D6
:1001A40009FAFEDE084640F64061C0F2040102226C
:1001B40000F040BA704700F070BD00F06CBDF0B5BF
:1001C40003AF4DF804BD84B040F20C043021C2F2F8
:1001D4000204204600F023FE40F680602546C0F26B
:1001E4000400002645F8180F4FF48060206204F1E3
:1001F4002C00D0E8AF1F21F00301C0E8AF1F40F28C
:100204003C00C2F20200E0610120206140F69760E8
:10021400C0F20400016800792160666104F8040FEB
:1002240040F69C60BFF35F8FC0F2040090E80E00BC
:100234000EC400F03CFD044600F02DFD40F24440A5
:10024400C2F2020006710560E00708BF00F025FD58
:1002540040F2404040F6A861C2F20200C0F204013C
:10026400C0E8AF1F0721019140F68961C0F2040183
:100274000091D0E8AF0F58B16946039100218DF881
:10028400081040F6AD31026802A8C0F2040190479C
:100294004FF6F45142F21472CFF6FF71C4F28402A5
:1002A4004FF480704FF0030C505000204FF48066E0
:1002B400C2F80CC04FF40065106201204FF4805462
:1002C4000C2356505061555090615450D0611360C6
:1002D4004FF6F853CFF6FF73D65040F20113555042
:1002E40054504FF6F84141F20852CFF6FF71C4F270
:1002F400010253500421916040F20001C2F800C091
:10030400C2F202010A784B789A421FBF40F20603F8
:10031400C2F202035E7806F001051FBF03EB450538
:100324008C78EC70A8701FBF701C5870501C08703B
:100334001FBF4EF20020CEF200004FF400410160D6
:100344001FBF40F60A30C0F20C0004B05DF804BBD5
:1003540018BFF0BD40F6426040F6706302AAC0F2D6
:100364000400C0F204032B2100F016FBFEDE80B56E
:100374006F4600F09FFCFCE780B56F4682B041F207
:10038400000149F28062C4F201014FF0000CC0F296
:100394009802C1F840C1C1F840250122CA600A6030
:1003A40040F20301C2F202010A784B78D0B2DBB208
:1003B40098421DD0887801320A7040F20601C2F2D8
:1003C40002014A7802F0010301EB4303D870501C88
:1003D40083F802C048704EF20020CEF200004FF4C1
:1003E40000410160002002B0BDE8804000F064BC20
:1003F40040F6426040F6706301AAC0F20400C0F205
:1004040004032B2100F0C8FAFEDED4D4F0B503AF08
:100414002DE9000F85B040F20606C2F202063078DC
:100424007178C2B2C9B28A4206D1002000F044FCFD
:1004340005B0BDE8000FF0BD00F0010142F2085321
:100444004AF6AB2940F24C4406EB41014AF221152D
:100454000130C4F2840349883070CAF6AA29C2F272
:100464000204C0F20705080AC9B24FF00108C9071F
:1004740061D140F20301C2F202010A464978907048
:10048400481C50700720029040F69060C0F20400AF
:10049400019040F24040C2F20200D0E8AF0F58B1E0
:1004A40001A9049100218DF80C1040F6AD310268C9
:1004B40003A8C0F2040190474FF0000A4FF0800BEC
:1004C400AAFB0901880800EB4000AAEB40000AF1EE
:1004D400010A042806D8DFE800F00307090B0D0021
:1004E400012108E0042106E0062104E0032102E0E2
:1004F400052100E00221204600F056FA284600F0CB
:10050400CEFBBBF1010BDBD1207842F208536178BA
:10051400C4F2840300F01F00A27808FA00F0186007
:1005240001F01F0008FA00F0186002F01F0008FA3A
:1005340000F018602DE040F20001C2F202010A4608
:1005440049789070481C50702078617800F01F0042
:10055400A27808FA00F0586001F01F0041F200018F
:1005640008FA00F0C4F20101586002F01F0008FA12
:1005740000F01860D1F8040340F48030C1F804039B
:100584000020C1F84001C1F84085C1F80C80C1F8D1
:10059400008030787178C2B2C9B28A423FF445AF64
:1005A40000F00101013006EB410149883070080A6E
:1005B400C9B25CE780B56F46FFF7FFFD40F200006B
:1005C40040F20302C2F202000021C2F20202817070
:1005D40091704FF400434178013141705078E0212B
:1005E400013050704EF20F404EF20012CEF2000075
:1005F400CEF2000201701360817040F23C40C2F2FE
:100604000200012101704FF400301060FFF7D7FDA4
:1006140040F24C41C2F202010880000C8870FFF7DE
:10062400CAFDFFF7A4FEFEDE80B56F4600F023FA94
:10063400FEDED4D4F0B503AF2DE9000F81B0D0F8BD
:1006440008E08346006991460C46BEF1010F13D1C0
:10065400012814D0B9F1000F00F02081A9F1010E96
:1006640009F0030CBEF1030F6AD200212346BCF14A
:10067400000F40F08A80A0E0012840F02881DBF8D8
:10068400143004EB09050022204600942BBB85425C
:100694004FD00146009C11F9013BB3F1FF3F40F3F9
:1006A4009C80002A18BF4A4540F0E2802046E8E0DA
:1006B40011F8010B00F03F0808464FF4E01101EA7D
:1006C400864141EA0A3141EA8C114144B1F5881F5F
:1006D4002FD0011B013B0A44D9D0854229D00446BE
:1006E40010F9011BB1F1FF3FF3DCCEB2A84207D0F1
:1006F4006178A01C01F03F0A0146E02EE9D304E032
:100704004FF0000A2946E02EE3D3A94207D011F89E
:10071400010B00F03F0C0846F02EDAD304E04FF052
:10072400000C2946F02ED4D3A942C1D14FF00008C1
:10073400C3E74A46009CBEF1010F40F02381A8E0C4
:1007440029F00301A0464E42002123461D785C781F
:10075400987805F0C005DA78802D04F0C00408BF4D
:100764000131802C00F0C00008BF0131802802F064
:10077400C00008BF0131802808BF013104330436AA
:10078400E4D14446BCF1000F17D0187800F0C00043
:10079400802808BF0131BCF1010F0ED0587800F059
:1007A400C000802808BF0131BCF1020F05D0987841
:1007B40000F0C000802808BF0131DBF80C80A9EBF1
:1007C4000100404580F08380BEF1030F12D2002265
:1007D4002346BCF1000F32D166E0DBB2A94200F03F
:1007E400A680861C407800F03F008001E02B80F05A
:1007F400A38056E729F0030000224642A64623467A
:1008040018785D7800F0C0009C78D978802805F0CD
:10081400C00008BF0132802804F0C00008BF0132C4
:10082400802801F0C00008BF0132802808BF0132CF
:1008340004330436E4D17446BCF1000F34D0187884
:1008440000F0C000802808BF0132BCF1010F2BD09A
:10085400587800F0C000802808BF0132BCF1020FB4
:1008640022D0987800F0C000802808BF01321BE035
:100874004A4504D2A05610F1400FBFF617AF00202E
:10088400002200280CBF4A460446BEF1010F40F086
:1008940079809146B9F1000F7FF4E0AEDBF80C806B
:1008A400B8F1000F13D000229BF820002546C31E88
:1008B40018BF0346A2EB090000EB080100200E4616
:1008C400DFE803F00E020B020026084608E0DBF81E
:1008D4001C104A46DBF8180056E0480801314E085F
:1008E400441C013C08D0DBE90602DBF80410126961
:1008F40090470028F5D013E0DBE906014A46CB68AF
:100904002946DBF804A0984750B9751CDBE9066456
:10091400013D0AD022693046514690470028F7D05D
:10092400012001B0BDE8000FF0BD0020F9E7002070
:100934002E46E02BFFF4B5AEAE4207D016F8011BED
:1009440001F03F01F02BFFF4ACAE04E000212E4691
:10095400F02BFFF4A6AE0843AE421ABF317801F083
:100964003F0100214FF4E01606EA834343EA801076
:100974000844B0F5881F7FF494AE4A46BEF1010FD7
:100984003FF487AFDBE90601CB68214601B0BDE83F
:10099400000FBDE8F040184780B56F46FFF744FEEE
:1009A400FEDEFEE77047D4D480B56F46C9B242F28A
:1009B400085C01234FF0000EC4F2840CDFE801F060
:1009C400063F2D040F2B3D104FF0010E017801223C
:1009D40001F01F0102FA01F1CCF8001037E0002306
:1009E4000178012201F01F0102FA01F1CCF8041090
:1009F400417800F1020001F01F0102FA01F1CCF884
:100A040004107BBB0078012100F01F0001FA00F004
:100A1400CCF8000080BD4FF0010E0178012201F0F6
:100A24001F0102FA01F1CCF80010417801F01F0116
:100A340002FA01F1CCF8041010E04FF0010E017835
:100A4400012201F01F0102FA01F1CCF804104178EF
:100A540001F01F0102FA01F1CCF800100230BEF1DE
:100A6400000FCFD00078012100F01F0001FA00F040
:100A7400CCF8040080BD80B56F4600F001F8FEDEBE
:100A840080B56F4600F00FF94EF60C500422CEF2FA
:100A94000000C0F2FA52016801F4A0611143016040
:100AA40000F001F900F002F9FCE7F0B503AF2DE91D
:100AB400000F81B0002B5BD00546007B002857D186
:100AC4001C46914688464FF0010A4FF0000B2B68F4
:100AD40003F10C0003F11002D0E8AF6FD2E8AF1FAE
:100AE4009B689E4238BF994208D3C0E8AFBFC2E8B2
:100AF400AFBFD5E90010C243896803E0686881424A
:100B04002CD9C2438E18A64288BF26466EB9B8F1C6
:100B1400000F2BD0B8F1010F04D029680C31C1E8C3
:100B2400AF0F17E0002685F80CA029683246496803
:100B34000844494600F0C3F895E8070032443144BC
:100B4400C5E901128068814228BFC5F804B0A41B1E
:100B54000ED0B144287B0028B9D009E02A680029C6
:100B64009268A2EB0006CED1013ECCE702202873A6
:100B740001B0BDE8000FF0BDF0B503AF4DF804BD02
:100B84000C46054600F093F8064600F084F8284623
:100B9400A047F00705D15DF804BBBDE8F04000F0C4
:100BA4007CB85DF804BBF0BDF0B503AF2DE90007D8
:100BB4008AB040F244488146C2F2020890F800A08C
:100BC400D8F8000000F10C0200F11003D2E8AF1FC6
:100BD400D3E8AF6F8468A14231BFA6420021C2E8C6
:100BE400AF1FC3E8AF1F002206AB8DF8242007C354
:100BF40098F8040050451FD040F6AC610AF00F008D
:100C0400C0F204010223085CD8F800101431D1E8C2
:100C1400AF1F8DF80100FF208DF8000001F00300E4
:100C2400C21E18BF0246511E06A818BF11466A46C6
:100C3400FFF73BFF88F804A006A96846024691E83E
:100C4400780008F1040178C20491D9F804108DF8F1
:100C540014A0D1E9002300991431D1E8AF1F01F0A9
:100C64000306F11E18BF3146FFF71FFF9DF80C0065
:100C7400022804D104989DF81410017007E0DDE9FE
:100C840000010C30C0E8AF1F02208DF80C000AB040
:100C9400BDE80007F0BD72B6704762B6704700BF8A
:100CA4000138FCD17047BFF34F8F70477047EFF3A3
:100CB4001080704730BF704780F311887047F0B5DB
:100CC40003AF4DF8048D42B1531E02F0030C032B05
:100CD40006D20022BCF1000F1FD15DF8048BF0BDD9
:100CE40022F0030200F1010E544201F101086FF0F9
:100CF400030208EB02060EEB02050432F378EB70F4
:100D040033792B7173796B71B379AB71A318043395
:100D1400EFD10432BCF1000FDFD08B5CBCF1010FCA
:100D24008354DAD0531CBCF1020FCE5CC654D4D029
:100D34000232895C81545DF8048BF0BDD0B502AFFA
:100D4400F9B14B1E01F0030C032B01D2002111E079
:100D540021F0030100F1010E4B426FF003010EEB91
:100D640001040431A27162712271E2705C180434CE
:100D7400F5D10431BCF1000F1CBF4254BCF1010F8A
:100D840000D1D0BD0844BCF1020F427018BF82707C
:100D9400D0BDD0B502AF1346D2B2042939D3A1F1E4
:100DA400040E42EA0363012443EA024304EB9E0473
:100DB40043EA022314F003040AD08446012C4CF8BD
:100DC400043B09D171466046BEF10C0F19D20CE008
:100DD400BEF10C0F15D208E0022C43600AD1083092
:100DE40008398446BEF10C0F0BD26046BDE8D040F2
:100DF400FFF7A4BF83600C300C398446BEF10C0F9E
:100E0400F3D3C0E900331039C0E9023310300329A9
:100E1400F7D884466046BDE8D040FFF78FBF002274
:100E2400FFF7B7BF70460421084202D1EFF30880F0
:0C0E340002E0EFF30980FFE7FEE7D4D4F2
:100E4000282963616C6C65642060526573756C74ED
:100E50003A3A756E77726170282960206F6E206152
:100E60006E2060457272602076616C7565000000CE
:100E7000B90104000000000001000000A901040005
:100E80005465726D696E616C0053746172742E0AE0
:100E9000446973636F2E0A534547475F455220529A
:100EA00054540000000000007D0B04003031323348
:0C0EB0003435363738394142434445465A
:040000034000014573
:00000001FF
